:020000040800F2
:1000000008040020CD0000085D0300085903000823
:1000100000000000000000000000000000000000E0
:10002000000000000000000000000000F3040008D1
:1000300000000000000000005F030008F504000855
:10004000DF00000800000000DF000008DF000008FB
:10005000DF000008DF000008DF000008DF00000804
:1000600000000000DF000008DF000008DF000008DB
:10007000DF000008DF000008DF00000800000000CB
:10008000DF000008DF000008DF000008DF000008D4
:10009000DF000008DF000008DF000008DF000008C4
:1000A000DF000008DF000008DF000008DF000008B4
:1000B000DF000008DF0000080348854600F02AF84A
:1000C0000048004711090008080400200448804740
:1000D00004480047FEE7FEE7FEE7FEE7FEE7FEE72F
:1000E000E5060008B900000830B50B4601460020BF
:1000F0002022012409E00D46D5409D4205D31D462E
:100100009540491B2546954040191546521E002D25
:10011000F1DC30BD064C0125064E05E0E36807CC56
:100120002B430C3C98471034B442F7D3FFF7C8FF79
:10013000100A0008300A000800B587B0012040040A
:1001400000F00EF90120800300F012F901220921CC
:10015000C80600F0DEF801220A210920C00600F0DE
:10016000D8F8012149026846818202218175002167
:10017000C175032101760121417605A90920C00638
:1001800000F082F8012189026846818205A90920D0
:10019000C00600F079F8E120400201900021684695
:1001A00041820C2101740021C181818100200290D3
:1001B00001A9044800F0D6FA024800F049FB07B054
:1001C00000BD00000038014010B50446002C00D1ED
:1001D00010BD03E0207800F007F8641C20780028A8
:1001E000F8D100BFF4E7000010B5044600BF80213D
:1001F000044800F033FB0028F9D02146014800F004
:1002000036FB10BD0038014000B5024600F008F88A
:10021000801A884201D3012000BD0020FCE70000C5
:100220000148006870470000040000200248006890
:10023000401C0149086070470400002010B50020F0
:100240000D4908607D21C9000C480068FFF74CFF8C
:100250000446601E0A49884200D90CE0601E094924
:1002600048610321081F00F007FB00200549886151
:100270000720086100BF10BD04000020000000201E
:10028000FFFFFF0000E000E070B50A4600213DE0FE
:1002900001238B4014881C40002C00D135E0947859
:1002A000012C02D09478022C16D184684E000325CC
:1002B000B540AC43846014794D00AC4085682C4354
:1002C0008460446801258D40AC4344604468D5781F
:1002D0008D40ADB22C43446005684E000324B44009
:1002E000A543056094784D00AC4005682C4304603C
:1002F000C4684E000325B540AC43C46054794D003A
:10030000AC40C5682C43C46000BF491C1029BFD352
:1003100070BDF0B50023002407290DDC8E001546C2
:10032000B5402B46056A8F000F26BE40B5430562D7
:10033000056A1D4305620EE04D07EE0E1546B540F9
:100340002C46456A4E07F70E0F26BE40B543456260
:10035000456A25434562F0BD00BFFEE77047704720
:10036000024949690143014A516170470010024046
:10037000024989690143014A9161704700100240B6
:100380007FB509A30FCB6C460FC400F031F80646C9
:10039000094840680006000F69460C5C3046E040A2
:1003A0000546284604B070BD0000000000000000B3
:1003B0000102030406070809001002407CB509A1E8
:1003C00003C901910090FFF7DBFF0646074840682C
:1003D0004005400F69460D5C3046E8400446204623
:1003E0007CBD000000000000010203040010024078
:1003F000F8B5224840688607B60F002E06D0012EB9
:1004000006D0022E06D0032E33D130E01C4E32E04F
:100410001B4E30E0194840688002000F841C1748CA
:100420004068C003850F1548C06A0007000F471CCD
:10043000002D03D113482646464317E0012D06D16F
:1004400039460F48FFF750FE604306460EE0022D86
:1004500006D139460A48FFF747FE6043064605E0E5
:1004600039460948FFF740FE6043064603E0064E62
:1004700001E0034E00BF00BF3046F8BD001002404F
:1004800000127A0000093D00006CDC0210B5002467
:100490001248006B8007800F002803D1FFF78EFF02
:1004A000044618E00D48006B8007800F012803D137
:1004B000FFF79EFF04460EE00848006B8007800FA0
:1004C000022801D1840306E00448006B8007800FF6
:1004D000032800D1024C204610BD0000001002404D
:1004E00000127A0010B50024FFF768FF044620468A
:1004F00010BD704710B5FFF799FE10BD344909686B
:100500000122120491438918314A1160002007E04A
:100510002F4909688903C90F002900D004E0401C55
:10052000012109048842F3D300BF294909688903DE
:10053000C90F00294AD02749096810229143103178
:10054000244A116011460968C908C900491C116094
:100550001F494968F02291431D4A5160114649687C
:100560000722120291431A4A516011464968032238
:10057000D2039143012212048918154A5160114691
:1005800049680F2292049143012212058918104AEA
:1005900051601146096801221206914389180C4ADC
:1005A000116000BF0A4909688901C90F0029F9D003
:1005B0000749496889088900891C054A516000BFBC
:1005C000034949680907890F0229F9D170470000DA
:1005D000001002400020024010B5FFF78FFF00F02E
:1005E00001F810BDF0B585B035A001460EC9C06850
:1005F0006C460EC40390364840680007800F049094
:100600000498002804D0012806D0022846D107E02B
:1006100030483149086045E02E482F49086041E0E4
:100620002B4840688002000F841C29484068C003A2
:10063000850F2748C06A0007000F461C022D11D104
:1006400031462448FFF750FD6043234908602048A5
:1006500040688003C00FA8421FD1084600684008C8
:1006600008601AE0012D07D131461A48FFF73CFD1A
:1006700060431949086010E0002D07D13146174842
:10068000FFF732FD60431449086006E03146144824
:10069000FFF72AFD60431049086003E00D480E494A
:1006A000086000BF00BF0A4840680006000F6946A6
:1006B0000F5C09480068F8400749086005B0F0BDC4
:1006C0000000000000000000010203040607080902
:1006D0000010024000127A000000002000093D00D6
:1006E000006CDC021B48006840084000401C1949AF
:1006F000086008464068184908401649486008469E
:10070000006816490840134908600846006801213E
:10071000890488430F490860084640683F2109045E
:1007200088430C4948600846406800090001486059
:100730000846006BFF215431884306490863084688
:10074000406B40084000486300208860C8030449AB
:1007500088607047001002400CB8FF08FFFFF6FEEB
:1007600000ED00E0FEB504460E462068400840005B
:100770002060256831480540307B718908437168E5
:1007800008430543256065682D48054030890543C9
:100790006560A5682B480540F0890543A5602A4897
:1007A000844203D1FFF772FE074609E027488442DE
:1007B00003D1FFF797FE074602E0FFF7FFFD07466C
:1007C00020680004C00F002808D0326851001922A8
:1007D0007A431046FFF788FC019007E032689100E9
:1007E00019227A431046FFF77FFC0190642101989B
:1007F000FFF77AFC05012809642148430199081A8A
:10080000009020680004C00F00280AD00099C90099
:10081000084632306421FFF767FC4007400F05436C
:1008200009E000990901084632306421FFF75CFCB9
:100830000007000F0543E560FEBD0000F3E900007E
:10084000FFCF0000FFFC00000038014000440040E2
:10085000016849084900491C016070470246D06997
:100860000840002801D0012070470020FCE7CA059D
:10087000D20D82627047000010B5002819DB1A4AB9
:1008800003231B02D21883089B00D2588307DC0E77
:10089000FF23A3409A438B071B0E8407E40EA3405B
:1008A0001A43114B032424021B198408A4001A5173
:1008B00018E00E4A03071B0F083B9B089B00D25809
:1008C0008307DC0EFF23A3409A438B071B0E84078C
:1008D000E40EA3401A43054B0407240F083CA40868
:1008E000A4001A5110BD000000E100E01CED00E082
:1008F00002E008C8121F08C1002AFAD170477047E9
:10090000002001E001C1121F002AFBD17047000046
:10091000FFF762FEFFF792FCFFF70EFC0EA0FFF759
:1009200053FC18A0FFF750FC21A0FFF74DFC29A0B5
:10093000FFF74AFCFFF774FC04460CE07D21C90078
:100940002046FFF761FC002805D07D20C000241858
:100950002BA0FFF739FCF1E70D0A5B424F4F545DC6
:100960002074616E6B65722D666C6F772D6D63758B
:1009700020302E312E302D6272696E6775700D0A2F
:10098000000000005B425350205D2041504D333247
:1009900046303330784320636C6F636B3D34384DA1
:1009A000487A207469636B3D316D730D0A00000055
:1009B0005B554152545D20555341525431205041B2
:1009C000392F504131302031313532303020384EDE
:1009D000310D0A005B504153535D207068617365AF
:1009E0002D31206D696E696D616C206272696E6770
:1009F0002D757020737461727465640D0A000000B7
:100A00005B414C4956455D2031730D0A00000000E2
:100A1000300A00080000002008000000F00800086C
:100A2000380A00080800002000040000000900083F
:080A3000006CDC020000000074
:04000005080000B936
:00000001FF
