:020000040800F2
:1000000050160020CD000008291D0008751A0008B0
:1000100000000000000000000000000000000000E0
:100020000000000000000000000000004B2100085C
:100030000000000000000000811D00084D230008A2
:10004000DF00000800000000DF000008DF000008FB
:10005000DF000008DF000008DF0000085D1700086F
:1000600000000000DF000008D5140008DD140008BF
:10007000DF000008DF000008DF00000800000000CB
:10008000DF000008DF000008DF000008DF000008D4
:10009000DF000008BD250008DF000008DF000008C1
:1000A000DF000008DF000008DF000008AB260008C2
:1000B000B3260008BB2600080348854600F02AF84E
:1000C00000480047152B00085016002004488047C0
:1000D00004480047FEE7FEE7FEE7FEE7FEE7FEE72F
:1000E0003D250008B900000830B50B460146002048
:1000F0002022012409E00D46D5409D4205D31D462E
:100100009540491B2546954040191546521E002D25
:10011000F1DC30BD064C0125064E05E0E36807CC56
:100120002B430C3C98471034B442F7D3FFF7C8FF79
:10013000A02E0008C02E000801490860704700008A
:10014000002401402349C968182291430278D20053
:1001500018231A4011431F4AD1601146C968202252
:1001600091434278520120231A401143194AD16029
:100170001146C968042291438278920004231A40F0
:100180001143144AD1601146C96852149143C27890
:100190005203DB021A4011430E4AD1601146C9686E
:1001A0000322920291434279920203239B021A4056
:1001B0001143084AD1601146C968FF22C1329143F8
:1001C00002799201FF23C1331A401143014AD160E1
:1001D0007047000000240140044A926A0243034B26
:1001E0009A621A4652690A435A61704700240140D4
:1001F0000021017041708170C170017141717047BF
:100200000348806840084000401C014988607047EE
:100210000024014010B50020002100220F4B9B68F4
:100220005B005B080124E4071B190C4CA36000BFB2
:100230000A4B9B68DA0F491C0F231B03994201D01C
:10024000002AF5D1054B9B68DB0F002B03D1034B34
:100250004033186800E0002010BD00000024014079
:100260000148006880B270474024014002460120E6
:1002700000061040002805D00748816801231B06AE
:10028000994301E00448016808461040002801D065
:10029000012070470020FCE70024014010B5012038
:1002A000400201F0ADFD0120400201F081FD10BDD2
:1002B0000348806804218843001D01498860704715
:1002C000002401400146062906D0072906D0082946
:1002D00006D009290AD106E0402070478020FCE7BB
:1002E000FF200130F9E701204002F6E70020F4E7A3
:1002F0007CB505460C46684601F0A5FB68460480BF
:1003000003218170002141716946284601F0DCFA21
:100310007CBD00001CB500201E490870032040046D
:1003200001F04EFD1C4801F063FD40210920C0068C
:10033000FFF7DEFF80210920C006FFF7D9FF01216A
:100340001648FFF7D5FF02211448FFF7D1FFFFF74A
:10035000A5FF6846FFF74CFF002168460170417019
:100360008170C17001714171FFF7ECFEFFF752FF20
:10037000FFF746FF0A4C00E0641E0120FFF776FFFE
:10038000002801D1002CF7D1002C02D00120014916
:1003900008701CBD2000002001020000000400487D
:1003A000A08601000148007870470000200000206E
:1003B00070B504460D4621466943034A881803492F
:1003C000FFF792FE70BD0000FF070000FF0F000066
:1003D000F7B582B00C461546002D01D0002C03D194
:1003E0000020C04305B0F0BD002600270EE001A9A3
:1003F000029800F015F800900098002801D00098AD
:10040000F0E7684680883618781CC7B2A742EEDB52
:10041000610888192146FFF767FE28800020E1E780
:10042000F8B507460D46002D03D017480078002880
:1004300002D10020C043F8BD3846FFF743FF06460F
:10044000002E01D1801EF6E7002010498862486125
:1004500007213046FFF7C0FE0420FFF76DFEFFF7CF
:1004600027FF0B4C00E0641E0420FFF7FFFE00286E
:1004700001D1002CF7D1002C01D1E01EDBE7FFF702
:10048000EFFE28800020D6E7200000200024014055
:10049000A086010010B50320400401F091FC01206A
:1004A00001F0A6FC002210210920C00601F089FA03
:1004B000002220210920C00601F083FA0022012138
:1004C0000903234801F06AFA002201214903204868
:1004D00001F077FA002280211D4801F072FA012212
:1004E00040211B4801F06DFA0022FF210131092053
:1004F000C00601F066FA00220421154801F061FAF5
:1005000000222021124801F05CFA00220121C903D7
:100510000920C00601F055FA0022012189030C4888
:1005200001F03CFA00220121C903094801F036FA22
:10053000012211030920C00601F043FA0122D10271
:100540000920C00601F02AFA01F004FA10BD0000EB
:100550000004004810B5072001F0E8FB05480478C6
:100560000020044908700321072001F0F1FB204618
:1005700010BD00000C00002001480068704700001A
:100580000800002010B50120C00201F047F9012841
:100590000AD1C00201F0E6F804480068401C034993
:1005A000086001200249087010BD0000080000200A
:1005B0000C00002010B50121C9020920C00601F07D
:1005C0004DFA10BD00B587B00120400401F0F8FBE2
:1005D0000120800301F00CFC01220921C80601F072
:1005E0000FFA01220A210920C00601F009FA05A824
:1005F00001F029FA012149026846818202218175B0
:100600000021C175032101760121417605A9092048
:10061000C00601F059F9012189026846818205A9C5
:100620000920C00601F050F901A802F0C3F8E1204A
:10063000400201900021684641820C210174002192
:10064000C18181810020029001A9044802F03CF898
:10065000024802F0BBF807B000BD000000380140BE
:1006600010B50446002C00D110BD03E0207800F046
:1006700007F8641C20780028F8D100BFF4E70000D8
:1006800010B5044600BF8021044802F037F9002865
:10069000F9D02146014802F03FF910BD0038014071
:1006A00010B504462106090F054A505CFFF7E8FF24
:1006B0002107090F024A505CFFF7E2FF10BD00005E
:1006C000F02D00083EB50546002D03D13020FFF780
:1006D000D7FF3EBD00240DE00A212846FFF704FDA8
:1006E0003031684601550A212846FFF7FDFC0546D2
:1006F000601CC4B2002D01D00A2CEDDB05E0601EA9
:10070000C4B26946085DFFF7BBFF002CF7D100BFFC
:10071000DFE7000000B587B000202949086001200C
:10072000800401F04DFB0120400501F051FB012048
:1007300001F05EFB01220821224801F061F901224B
:100740000921204801F05CF905A801F07CF902219B
:1007500068468175032101760121C175002141762A
:10076000FF210131818205A9164801F0ADF8012170
:1007700049026846818205A9124801F0A5F812488D
:1007800001F06CFA012001F0FDFA684601F01CFA54
:10079000002168460172017400200190684641748E
:1007A000817400200390094800906946064801F0D2
:1007B000BDF901F071F9044801F011FA07B000BD6C
:1007C0001C0000200004004800540040130F42B0F9
:1007D00070B504460D46164601233246294620468A
:1007E00000F002F870BD0000FFB583B017461D464B
:1007F000002F01D0002D03D10220C04307B0F0BD6F
:1008000001F04CFA0446002C03D0204601F016FA01
:10081000F4E701F07DF903984000029001204003C5
:100820000023012200902748029901F0E5F90121F7
:10083000022001F03BFA0446002C03D0204601F0D0
:10084000FDF9DBE71F48049901F026FA0121402059
:1008500001F02CFA0446002C03D0204601F0EEF9FA
:10086000CCE70920800201235B062A460090154848
:10087000029901F0C1F9002610E00121042001F0E5
:1008800015FA0446002C03D0204601F0D7F9B5E74D
:100890000C4801F0FDF9B855701CC6B2AE42ECDB55
:1008A0000121202001F002FA0446002C03D020464A
:1008B00001F0C4F9A2E72021024801F027F9002045
:1008C0009CE700000054004010B5FFF7E3FD00F086
:1008D000C7FBFFF71FFFFFF71DFD10BD0160828002
:1008E0000023C3800381C36070470146C868704716
:1008F00010B502460B46D088401C81B290888842D1
:1009000000DC00211089884204D1D068401CD060EE
:10091000002010BDD48810680355D1800120F8E76D
:10092000F0B507460D461646002401E0601C84B26F
:10093000B44205DA295D3846FFF7DAFF0028F5D121
:100940002046F0BD0021C1800181704710B5012112
:1009500009A001F0B5FC022109A001F0B1FC0321BE
:1009600009A001F0ADFC042109A001F0A9FC0521BA
:1009700009A001F0A5FC10BD444247200000000082
:1009800042542020000000003447202000000000D6
:10099000474E535300000000464C4F5700000000E4
:1009A00030B58BB0002108A8017241728172C1720A
:1009B0009CA0FFF755FEA7A0FFF752FEFFF7FAFD38
:1009C000054601F071FCAAA0FFF74AFEFFF7D4FD2F
:1009D000054601F069FCA9A0FFF742FE08A801F056
:1009E0005CFB0446002C0FD0B1A0FFF739FE60423B
:1009F00001F05AFCADA0FFF733FE08A8C07A401CF6
:100A0000C1B208A8C172C0E0B4A0FFF729FE08A9CE
:100A1000087801F04FFCB7A0FFF722FE08A948783C
:100A200001F042FCB5A0FFF71BFE08A9887801F091
:100A30003BFCB4A0FFF714FE08A90879002806D0F3
:100A4000B3A0FFF70DFE012008A9087208E0B4A0CA
:100A5000FFF706FE08A8C07A401CC1B208A8C17200
:100A600005A801F0C5FA0446002C30D1012008A9E0
:100A70004872B0A0FFF7F4FD6946087D01F01AFC4A
:100A8000B2A0FFF7EDFD6946487D01F013FCB2A06E
:100A9000FFF7E6FD6946887D01F006FCB0A0FFF790
:100AA000DFFD6946C87D01F0FFFBAFA0FFF7D8FD71
:100AB0006946087E01F0F8FBADA0FFF7D1FD69465D
:100AC000C87E01F0F1FB79A0FFF7CAFD08E0ABA0FA
:100AD000FFF7C6FD08A8C07A401CC1B208A8C172C1
:100AE00004A801F00FFB0446002C11D1ABA0FFF7C6
:100AF000B7FD6946087C01F0DDFBB0A0FFF7B0FD53
:100B00006946487C01F0D6FB68A0FFF7A9FD08E024
:100B1000ADA0FFF7A5FD08A8C07A401CC1B208A887
:100B2000C17203A801F048FA0446002C0AD1AEA015
:100B3000FFF796FD6846808901F0B6FBB0A0FFF78D
:100B40008FFD08E0AFA0FFF78BFD08A8C07A401C1E
:100B5000C1B208A8C17202A801F013FA0446002C21
:100B60000AD1B0A0FFF77CFD6846008901F09CFB2C
:100B7000AEA0FFF775FD08E0AEA0FFF771FD08A875
:100B8000C07A401CC1B208A8C172FFF70BFC0190EB
:100B900069460879002809D1ABA0FFF761FD08A8D4
:100BA000C07A401CC1B208A8C17221E001AAAEA15E
:100BB000062001F02BFB01AAADA1072001F026FBC6
:100BC00001AAADA1082001F021FB01AAACA10920D6
:100BD00001F01CFB68460079002803D0012008A919
:100BE000887205E008A8C07A401CC1B208A8C1728A
:100BF000A548FFF735FDFFF7A9FE08A8C07A002831
:100C000003D1A2A0FFF72CFD09E0A8A0FFF728FD63
:100C100008A9C87A01F048FBADA0FFF721FD0A98AA
:100C20000BB030BD5B53454C465D20706861736509
:100C30002D3341207065726970686572616C207334
:100C4000656C662D746573742073746172740D0A1B
:100C5000000000005B53454C465D5B4750494F5DCB
:100C6000204348475F494E54206C6576656C3D00D3
:100C7000206972715F636F756E743D003B2063681D
:100C80006172676572206E43452072656D61696EA1
:100C9000732064697361626C6564206279204253D9
:100CA0005020736166652073746174650D0A0000DD
:100CB0005B53454C465D5B434847205D2053474DA1
:100CC0003431353131204932432070726F62653DD5
:100CD0004641494C206572723D0000005B53454C13
:100CE000465D5B434847205D2052454730423D30DA
:100CF0007800000020504E3D000000002052455674
:100D00003D000000206465766963653D00000000D9
:100D100053474D343135313120504153530D0A0082
:100D2000554E4558504543544544204641494C0D85
:100D30000A0000005B53454C465D5B434847205D1D
:100D40002052454730383D3078000000205245475A
:100D500030413D307800000020564255533D0000A0
:100D6000204348473D0000002050473D0000000060
:100D700020564255535F47443D0000005B53454CAD
:100D8000465D5B434847205D207374617475732032
:100D9000726561643D4641494C0D0A005B53454C08
:100DA000465D5B434847205D204641554C54206CCE
:100DB0006174636865643D3078000000206375727B
:100DC00072656E743D3078005B53454C465D5B4305
:100DD0004847205D206661756C7420726561643DD2
:100DE0004641494C0D0A00005B53454C465D5B4350
:100DF0004847205D2049494E44504D3D00000000C9
:100E00006D4100005B53454C465D5B434847205DA8
:100E10002049494E44504D3D524541445F46414969
:100E20004C00000020494348473D00006D410D0A39
:100E30000000000020494348473D524541445F4679
:100E400041494C0D0A0000005B53454C465D5B4137
:100E50004443205D204144432072656164793D46EE
:100E600041494C0D0A0000004144435F494E3600A1
:100E70004144435F494E37004144435F494E380087
:100E80004144435F494E3900482E00085B53454CAE
:100E9000465D2070686173652D33412072657375FE
:100EA0006C743D504153530D0A0000005B53454C98
:100EB000465D2070686173652D33412072657375DE
:100EC0006C743D4641494C20636F756E743D000063
:100ED0002028626F6F7420636F6E74696E7565731E
:100EE00020666F722062656E636820646961676E58
:100EF0006F736973290D0A0000B5024600F008F807
:100F0000801A884201D3012000BD0020FCE70000C8
:100F10000148006870470000040000200248006893
:100F2000401C0149086070470400002010B50020F3
:100F30000D4908607D21C9000C480068FFF7D4F80E
:100F40000446601E0A49884200D90CE0601E094927
:100F500048610321081F01F091FD002005498861C7
:100F60000720086100BF10BD040000200000002021
:100F7000FFFFFF0000E000E038B50120400200F074
:100F800041FB012813D10A4801235B021A46094993
:100F90000090094800F0BEFB04460848C068401CA9
:100FA0000649C8600648C06800190549C86038BDD0
:100FB000C4110020A40A0020300002403412002096
:100FC0000412002038B50120400400F01BFB01286A
:100FD00013D10A4801235B045A12094900900948B9
:100FE00000F098FB044608480069401C0649086167
:100FF0000648006900190549086138BDD411002070
:10100000A40E0020580002403412002004120020D8
:1010100070B506460C46002C00D170BD0020206043
:101020006060A060E0603546062D00D3F5E7A800BB
:10103000084908582060A800074908586060A800BF
:1010400006490858A060304600F048F9E06000BF4B
:10105000E3E70000041200201C12002034120020DC
:1010600010B588B080227D497D48FFF737FC01220A
:1010700052027C497C48FFF731FC0122D2027B49B5
:101080007B48FFF72BFC012252027A497A48FFF78E
:1010900025FC0122520279497948FFF71FFC002004
:1010A0007849088001207849087000207749087045
:1010B000774908707749086000240BE00020A10000
:1010C000754A5050A100754A5050A100744A5050C2
:1010D000601CC4B2062CF1D3724800F071FE0F20E0
:1010E000400400F075FE0120400400F081FE012064
:1010F000032108220923DB06009301920291039049
:101100000346022204210920C00601F025FC042028
:101110000B214202644B009301920291039003461B
:101120000A220102604801F017FC0420012102227A
:101130000923DB06009301920291039003460022EB
:101140000920C00601F008FC04201022564B029032
:10115000009301920390034603220821524801F0B4
:10116000FBFB00231A46E1214902504801F0D8FB5D
:1011700000231A46E12149024D4801F0D1FB00232A
:101180001A464B21C9014B4801F0CAFB01239B02BF
:101190009A004B21C901484801F0C2FB2021474871
:1011A00001F037FB2021414801F033FB102140487A
:1011B00001F02FFB10213F4801F02BFB20213E487E
:1011C00001F027FB0120400200903D4B384A3D4989
:1011D00001903D4800F062FA0120400441123B4B6F
:1011E000344A009101903A493748283000F056FAC5
:1011F00005A801F037FA2F21684681820021817508
:101200003448069068460177417705A9324801F0D5
:10121000DDF90121304801F0D5F901212E4801F016
:1012200035FA2D4801F027FA02211B2000F090FD2D
:1012300002211C2000F08CFD02211D2000F088FD01
:1012400001210A2000F084FD01210B2000F080FD27
:101250000221152000F07CFD08B010BD2400002004
:10126000A4110020A4000020B4110020A40200203A
:10127000C4110020A40C0020D4110020A40F0020D1
:10128000E4110020100000201200002013000020B4
:101290001400002018000020041200201C1200205E
:1012A0003412002001000600000400480044004001
:1012B00000480040004C0040005000400038014011
:1012C000A40A0020000A002030000240A40E0020E2
:1012D00000000B40031000000044014070B50546BB
:1012E000284601F061FB0446002C00D170BD204669
:1012F000FFF7FBFAFAE7000010B50121134801F0EF
:10130000C9F9012821D10121104801F05BF90F48EA
:1013100001F0B1F90E480088002810D00D4800787F
:10132000002804D00A48008800F08CFA07E00A4838
:10133000FFF708FB002009490870094908700020E0
:101340000349088001200349087010BD0044014092
:101350001000002012000020E411002013000020E3
:101360001400002010B52021094801F077FA012867
:101370000CD108484068401C06494860044801F008
:10138000C6FAC4B221460448FFF7B2FA10BD000005
:101390000038014004120020A411002010B52021C3
:1013A000094801F05BFA01280CD108488068401C0C
:1013B00006498860044801F0AAFAC4B221460448EC
:1013C000FFF796FA10BD0000004400400412002010
:1013D000B411002038B51021304801F03FFA01283F
:1013E00017D110212D4801F06CF92D4801235B0223
:1013F0001A462C4900902C4800F08CF904462B48E2
:10140000C068401C2949C8602948C068001928499B
:10141000C8601021274801F021FA012818D11021B5
:10142000244801F04EF9244801235B045A12234951
:1014300000901D48283000F06DF904461B480069F3
:10144000401C1A4908611A480069001918490861C6
:1014500020211B4801F002FA01281ED1184801F092
:1014600056FAC5B212484069401C114948612946E4
:101470001448FFF73DFA00280AD0134800881349A2
:10148000884208D210480088401C0F49088002E0BA
:1014900000200F49087000F003FA38BD00480040F2
:1014A000C4110020A40A0020300002401C120020B9
:1014B00004120020004C0040D4110020A40E002093
:1014C00000500040E411002010000020FFFF000049
:1014D0001200002010B5FFF74FFD10BD10B5FFF74B
:1014E00071FD10BD03494968020112091143014A07
:1014F000516070470000024010B5026810239A4303
:101500000B7A1B01102423401A4302600268202337
:101510009A430B7D5B01202423401A43026002683A
:1015200063029A438B7D9B03640223401A4302604B
:10153000026803231B039A434B7D1B0303242403EC
:1015400023401A430260026880239A438B7CDB01AC
:10155000802423401A430260026840239A43CB7CD4
:101560009B01402423401A430260026803239B022C
:101570009A430B7C9B020324A40223401A4302607B
:101580000268A3109A434B7C1B02A41023401A4309
:101590000260CA6842600A68C2604A68826010BD20
:1015A00010B5A82212580B0F9C000F23A3409A439A
:1015B000A8231A50A82212580B011B091A43A8236A
:1015C0001A5010BD00210172017581754175817439
:1015D000C17401744174C160016041607047016869
:1015E0004908490001607047016849084900491CE1
:1015F0000160704702680A4302607047014648680C
:101600007047000001460A011209054800681040B1
:101610000346934201D1012070470020FCE70000FF
:101620000000024001684908490001600021016092
:1016300041608160C1601749884204D10F21154A79
:10164000083A516025E013491431884204D1F02151
:10165000104A083A51601CE00E492831884205D1F1
:101660000F2109020B4A083A516012E009493C3146
:10167000884205D10F210903064A083A516008E063
:1016800004495031884204D10F210904014A083A23
:10169000516070470800024041607047FFB587B055
:1016A000064614461D46109F3046FFF798FF304609
:1016B000FFF7B8FF16480899FFF772FF01A8FFF778
:1016C00081FF0497002168460175417501218175EC
:1016D0000021C175017681760221417600210173D6
:1016E000019520462430029001A93046FFF704FFFF
:1016F0001198FFF7F7FE02213046FFF77BFF3046D7
:10170000FFF772FF4021204601F066F80BB0F0BDF4
:1017100000000240FFB581B014461E460198FFF755
:101720005EFF0198FFF76AFF0746A74200D92746E8
:10173000E01B85B2002D04D02A4602990A98FFF7D3
:10174000EFF83046FFF7CEFE21460198FFF7A4FFE1
:101750000198FFF749FF284605B0F0BD10B5FEF728
:1017600011FF10BD014948617047000000040140AD
:101770008179002913D10179002906D1224909680C
:1017800002689143204A11603CE00179012939D176
:101790001D494968026891431B4A516032E0017952
:1017A000002906D11849096802681143164A1160D8
:1017B00008E00179012905D11349496802681143FC
:1017C000114A51604179002906D10F4989680268A0
:1017D00011430D4A916015E04179012906D10A496A
:1017E000C96802681143084AD1600BE0064989685C
:1017F00002681143044A91601146C96802681143A6
:10180000014AD160704700000004014000210160DE
:101810000171012141710021817170470146002051
:101820000022074B1B680B401A46054B5B690B40B7
:10183000002B03D0002A01D0012000E000207047D7
:101840000004014070B5054610480078401CC4B241
:10185000082C00D300240E48007884420DD10D4896
:101860000068401C0B4908600B48FFF76BF800202C
:10187000064908700649087070BD044800784000A9
:1018800006490D520148047000BFF5E7130000201F
:101890001400002018000020E4110020F4110020A2
:1018A00010B5074800F0E7FE0021054800F0FBFEF8
:1018B0000121034800F086FE014800F0E1FE10BD62
:1018C000004401408162704770B50A4600213DE046
:1018D00001238B4014881C40002C00D135E0947803
:1018E000012C02D09478022C16D184684E00032576
:1018F000B540AC43846014794D00AC4085682C43FE
:101900008460446801258D40AC4344604468D578C8
:101910008D40ADB22C43446005684E000324B440B2
:10192000A543056094784D00AC4005682C430460E5
:10193000C4684E000325B540AC43C46054794D00E3
:10194000AC40C5682C43C46000BF491C1029BFD3FC
:1019500070BD00001CB500200E4908600E490870DB
:101960000B2100F0F3FB6846FFF750FF0120C00297
:101970000090002168460171012141718171FFF7DA
:10198000F7FE0120C002FFF7EDFE0321072000F063
:10199000DFF91CBD080000200C0000207CB50646C5
:1019A0000C461546684600F04EF868460480002153
:1019B0008170C1700171457169463046FFF784FF3F
:1019C0007CBD7CB506460C461546002D04D021464C
:1019D000304600F04DF803E021463046FFF772FF35
:1019E000684600F030F868460480012181700021CB
:1019F000C1700171417169463046FFF765FF7CBDDA
:101A0000F0B50023002407290DDC8E001546B540F3
:101A10002B46056A8F000F26BE40B5430562056A56
:101A20001D4305620EE04D07EE0E1546B5402C46EF
:101A3000456A4E07F70E0F26BE40B5434562456A1C
:101A400025434562F0BD0021C9430180002181701A
:101A5000C170012101710021417170470246136973
:101A60000B40002B01D0012300E0002318467047F3
:101A70008161704700BFFEE710B50121C903054829
:101A800000F0D0F8012802D1024800F0AEF800F0D2
:101A900003F810BD0054004010B510211A4800F0A2
:101AA000C1F8012803D11021174800F02FF8FF21B9
:101AB0000131154800F0B6F8012803D1010212489F
:101AC00000F024F8012149020F4800F0ABF801288A
:101AD00003D141020C4800F019F8012189020A489B
:101AE00000F0A0F8012803D18102074800F00EF8A9
:101AF0002021054800F096F8012803D12021024852
:101B000000F004F810BD000000540040C1617047AF
:101B100010B52021044800F085F8012803D12021C8
:101B20000148FFF7F3FF10BD0054004030B500221C
:101B300003685B085B0003600268214B1A4003687E
:101B40000F242402A3438C7C24020F252D022C4059
:101B500023430360036801242403A3434C7C240330
:101B600001252D032C40234303600F2424060B681A
:101B7000A343036103685B085B005B1C03600022F6
:101B800000238360C3600B7C9B024C6823431A468E
:101B900082608368EC00A3431B1983600368094CCF
:101BA00023400360CA680368134303604368EC0082
:101BB000A3430C7AE403ED002C402343436030BD83
:101BC000FFE0CF00FFFFFC0F002101604160C1601A
:101BD0004174817401210172002101747047016810
:101BE00049084900491C016070474168012292037D
:101BF0009143891841607047F0B50C460021416857
:101C0000074D2940A505AD0D1604FF273F043E40B2
:101C100035431D43059E354329434160F0BD000017
:101C2000009800FC024600239069084003468B425E
:101C300001D1012070470020FCE7000010B50446E8
:101C4000002C06D004480068401C03490860FFF7D8
:101C500013FF204610BD00001C00002010B50446F4
:101C60000A48844208D10120400500F0B9F801205B
:101C7000400500F095F807E00120800500F0B0F87D
:101C80000120800500F08CF810BD000000540040D9
:101C90000146486AC0B270478162704710B50021A2
:101CA0000120C00300F002F810BD000070B504462A
:101CB0000D46FFF72DF906462BE010211948FFF7D6
:101CC000B1FF012801D1C01E70BDFF2101311548AF
:101CD000FFF7A8FF012801D1401FF5E701214902C4
:101CE0001048FFF79FFF012801D1801FECE7012179
:101CF00089020C48FFF796FF012801D1C01FE3E7D6
:101D000014213046FFF7F8F8002802D00020C04325
:101D1000DAE721460348FFF785FFA842CDD100202E
:101D2000D2E700000054004070470000014600293F
:101D300009DBCB06DB0E01229A40044B1A60BFF38D
:101D40004F8FBFF36F8F00BF7047000080E100E04E
:101D500070B504460D462946204600F053FE204645
:101D6000002809DB00BF00BFC206D20E012191404E
:101D7000024A116000BF00BF00BF70BD00E100E07B
:101D8000704700000549096B10229143020110239E
:101D90001A401143014A11637047000000100240CD
:101DA000024909698143014A1161704700100240EC
:101DB0000249C9688143014AD1607047001002405E
:101DC000024949690143014A5161704700100240CC
:101DD0000249C9690143014AD161704700100240BC
:101DE000024909690143014A11617047001002402C
:101DF000024989690143014A91617047001002401C
:101E00000249C9680143014AD1607047001002408D
:101E10007FB509A30FCB6C460FC400F031F806461E
:101E2000094840680006000F69460C5C3046E040F7
:101E30000546284604B070BD000000000000000008
:101E40000102030406070809001002407CB509A13D
:101E500003C901910090FFF7DBFF06460748406881
:101E60004005400F69460D5C3046E8400446204678
:101E70007CBD0000000000000102030400100240CD
:101E8000F8B5224840688607B60F002E06D0012E0E
:101E900006D0022E06D0032E33D130E01C4E32E0A5
:101EA0001B4E30E0194840688002000F841C174820
:101EB0004068C003850F1548C06A0007000F471C23
:101EC000002D03D113482646464317E0012D06D1C5
:101ED00039460F48FEF708F9604306460EE0022D2A
:101EE00006D139460A48FEF7FFF86043064605E08A
:101EF00039460948FEF7F8F86043064603E0064E07
:101F000001E0034E00BF00BF3046F8BD00100240A4
:101F100000127A0000093D00006CDC0210B50024BC
:101F20001248006B8007800F002803D1FFF78EFF57
:101F3000044618E00D48006B8007800F012803D18C
:101F4000FFF79EFF04460EE00848006B8007800FF5
:101F5000022801D1840306E00448006B8007800F4B
:101F6000032800D1024C204610BD000000100240A2
:101F700000127A0010B50024FFF768FF04462046DF
:101F800010BDF8B50446002C01D1C01EF8BD69464D
:101F9000022000F0CDF80646002E01D03046F5E7CD
:101FA000684600788506AD0E322D00D932253C20DA
:101FB000684320800020E9E738B50446002C01D1B1
:101FC000C01E38BD6946002000F0B2F80546002D5D
:101FD00001D02846F5E768460078C106C90E009191
:101FE0006846007864214843643020800020E8E798
:101FF0007CB50446002C01D1C01E7CBD01A908207F
:1020000000F096F80546002D01D02846F5E7694610
:102010000A2000F08DF80546002D01D02846ECE797
:1020200068460079207068460078607068460079DC
:10203000E02108404009A070684600791821084056
:10204000C008E070684600790421084080082071CB
:1020500068460079022108404008607168460079AE
:10206000C007C00FA0716846007880210840C009F1
:10207000E071684600784021084080092072684677
:1020800000782021084040096072684600780421E9
:1020900008408008A0720020AFE738B50446002C45
:1020A00001D1C01E38BD69460B2000F041F805463D
:1020B000002D07D0002020706070A070E0702071AB
:1020C0002846EFE768460078207068460078782157
:1020D0000840C0086070684600788007800FA070D4
:1020E00068460078042108408008E0706078022883
:1020F00004D1E078002801D0012000E00020207108
:102100000020CFE770B50446002C01D1C01E70BD81
:102110002146092000F00CF80546002D01D0284684
:10212000F5E7611C092000F003F805462846EEE7B4
:1021300070B505460C46002C01D1C81E70BD224664
:1021400029466B20FEF744FBF8E7704730B503469D
:102150001C07240F8D072D0FAC4020468C07250F40
:102160000F24AC402246032909DC274CA468944381
:10217000254DAC602C46A4680443AC6043E00429C0
:1021800001DB012400E00024072901DC012500E037
:1021900000252C40002C09D01B4CE46894431A4DB8
:1021A000EC602C46E4680443EC602CE0082901DB79
:1021B000012400E000240B2901DC012500E00025BA
:1021C0002C40002C09D0104C246994430E4D2C61F6
:1021D0002C46246904432C6115E00C2901DB012401
:1021E00000E000240F2901DC012500E000252C403F
:1021F000002C08D0044C64699443034D6C612C4658
:10220000646904436C6130BD00000140FEB50646C0
:102210000C46154601AA08213046FEF7D9F80746B4
:1022200012A0FEF71DFA2046FEF71AFA002F05D07D
:1022300012A0FEF715FA00202870FEBD134968466B
:102240008088FEF7B5F8009011A0FEF709FA6846FD
:10225000808800F029F810A0FEF702FA009800F03C
:1022600023F810A0FEF7FCF900BFE6E75B53454CEE
:10227000465D5B414443205D2000000020726561A3
:10228000643D4641494C0D0A00000000E40C00008A
:10229000207261773D0000002070696E5F6D763DB1
:1022A000000000000D0A000010B504462046FEF7AD
:1022B00009FA10BD10B504462046FEF7F1F910BD2D
:1022C0007FB505460C4669462046FEF7A1FE11A0E3
:1022D000FEF7C6F92846FEF7C3F912A0FEF7C0F9CB
:1022E0000098FFF7E1FF11A0FEF7BAF90198FFF798
:1022F000DBFF10A0FEF7B4F90298FFF7D5FF10A09E
:10230000FEF7AEF90398FFF7CFFF0FA0FEF7A8F98D
:102310007FBD00005B53454C465D5B554152545DAB
:10232000200000002072783D000000002069646CED
:10233000653D000020646D615F66756C6C3D00005A
:10234000206F76663D0000000D0A000010B5FEF714
:10235000E5FD10BD34490968012212049143891832
:10236000314A1160002007E02F4909688903C90F2D
:10237000002900D004E0401C012109048842F3D365
:1023800000BF294909688903C90F00294AD0274994
:102390000968102291431031244A116011460968DE
:1023A000C908C900491C11601F494968F0229143BE
:1023B0001D4A5160114649680722120291431A4A88
:1023C0005160114649680322D2039143012212044D
:1023D0008918154A5160114649680F2292049143A9
:1023E000012212058918104A51601146096801221C
:1023F0001206914389180C4A116000BF0A49096806
:102400008901C90F0029F9D007494968890889005D
:10241000891C054A516000BF034949680907890FB3
:102420000229F9D17047000000100240002002404C
:1024300010B5FFF78FFF00F001F810BDF0B585B0C3
:1024400035A001460EC9C0686C460EC403903648DC
:1024500040680007800F04900498002804D00128E9
:1024600006D0022846D107E030483149086045E0EF
:102470002E482F49086041E02B4840688002000F39
:10248000841C29484068C003850F2748C06A00079C
:10249000000F461C022D11D131462448FDF724FEC1
:1024A000604323490860204840688003C00FA84269
:1024B0001FD108460068400808601AE0012D07D1C6
:1024C00031461A48FDF710FE60431949086010E0D4
:1024D000002D07D131461748FDF706FE6043144929
:1024E000086006E031461448FDF7FEFD60431049E0
:1024F000086003E00D480E49086000BF00BF0A48AD
:1025000040680006000F69460F5C09480068F84003
:102510000749086005B0F0BD0000000000000000A1
:1025200001020304060708090010024000127A00A5
:102530000000002000093D00006CDC021B48006820
:1025400040084000401C1949086008464068184986
:102550000840164948600846006816490840134973
:102560000860084600680121890488430F49086013
:10257000084640683F21090488430C4948600846E2
:1025800040680009000148600846006BFF21543193
:102590008843064908630846406B4008400048638A
:1025A00000208860C803044988607047001002401A
:1025B0000CB8FF08FFFFF6FE00ED00E010B5FEF7D7
:1025C0009BFE10BDCA4302617047000010B51F4A50
:1025D000904202D01E4A904212D1026810239A43C0
:1025E0008B781B01102423401A4302600268602389
:1025F0009A438B785B105B01602423401A4302608E
:10260000144A90420AD0026803231B029A430B7AB1
:102610001B020324240223401A4302604A68C26258
:102620000A888262094A904208D00B4A904205D03B
:102630000A4A904202D00A4A904201D14A7A026381
:10264000426952085200521C426110BD002C0140E8
:1026500000040040001000400040014000440140E0
:10266000004801400021C9434160002101800172FE
:1026700081704172704701684908490001607047E4
:10268000016849084900491C01607047C2680A4353
:10269000C2607047024610690840002801D001203E
:1026A00070470020FCE74162704710B5FEF75AFE04
:1026B00010BD10B5FEF772FE10BD10B5FEF78AFE14
:1026C00010BD016270470000FEB504460E4620684A
:1026D000400840002060256831480540307B718902
:1026E0000843716808430543256065682D48054027
:1026F000308905436560A5682B480540F08905438E
:10270000A5602A48844203D1FFF708FC074609E088
:102710002748844203D1FFF72DFC074602E0FFF76C
:1027200095FB074620680004C00F002808D03268D7
:10273000510019227A431046FDF7D6FC019007E0BC
:102740003268910019227A431046FDF7CDFC0190C2
:1027500064210198FDF7C8FC05012809642148435C
:102760000199081A009020680004C00F00280AD0C0
:102770000099C900084632306421FDF7B5FC4007D6
:10278000400F054309E000990901084632306421F1
:10279000FDF7AAFC0007000F0543E560FEBD000041
:1027A000F3E90000FFCF0000FFFC0000003801400B
:1027B000004400404B21C9010160002141600181BA
:1027C00041810C2101730021C181704701684908D2
:1027D0004900491C01607047402905D182684023A7
:1027E0009A434032826013E0802905D182688023B9
:1027F0009A43803282600BE0C02909D1826880232D
:102800009A4380328260826840239A4340328260D9
:102810007047012901D1012200E0002201239B021F
:10282000994201D1012300E000231A4301239B05B3
:10283000994201D1012300E000231A43002A03D06A
:1028400082680A43826008E0402903D142680A4353
:10285000426002E002680A430260704710B5024617
:10286000002300240E200840002806D09068C307EB
:10287000DB0FD0690840044638E0F020084000280B
:1028800006D0106808400346D069084004462DE091
:10289000C807C00F002806D01068C005C30FD06954
:1028A000C407E40F22E0012040020840002806D0BF
:1028B00090684005C30FD0698005C40F16E0012061
:1028C000C0020840002806D010684001C30FD0693C
:1028D0000005C40F0AE0012040040840002805D08C
:1028E00010684004C30FD0698003C40F002C03D0CC
:1028F000002B01D0012010BD0020FCE70246D0696A
:102900000840002801D0012070470020FCE7014664
:10291000486AC005C00D7047CA05D20D8262704773
:10292000F0B585B007460C4615461E466846FFF7CB
:1029300041FF009400216846C1810C21017346814A
:1029400000210181019569463846FFF7BDFE3846F2
:10295000FFF73CFF05B0F0BDFEB507460C46154637
:102960001E46324629463846FFF74AF80B9A0A991E
:102970000898FFF745F86846FFF765F802216846B2
:1029800081700021C1700321017101214171048016
:1029900069463846FEF798FF694609980880089806
:1029A000FEF792FFFEBD000000B501460B0000F0EF
:1029B0001BF8060E0406080A0C0E064800BD064861
:1029C000FCE70648FAE70648F8E70648F6E700207D
:1029D000F4E70000A4110020B4110020C41100206D
:1029E000D4110020E411002030B47446641E257810
:1029F000641CAB4204D3635D5B00E31830BC184732
:102A00001D46F8E710B5002819DB1A4A03231B02FC
:102A1000D21883089B00D2588307DC0EFF23A34003
:102A20009A438B071B0E8407E40EA3401A43114BF5
:102A3000032424021B198408A4001A5118E00E4A2A
:102A400003071B0F083B9B089B00D2588307DC0E33
:102A5000FF23A3409A438B071B0E8407E40EA34079
:102A60001A43054B0407240F083CA408A4001A517C
:102A700010BD000000E100E01CED00E010B50028F2
:102A800019DB1A4A03231B02D21883089B00D25871
:102A90008307DC0EFF23A3409A438B071B0E84079A
:102AA000E40EA3401A43114B032424021B1984088B
:102AB000A4001A5118E00E4A03071B0F083B9B089D
:102AC0009B00D2588307DC0EFF23A3409A438B0759
:102AD0001B0E8407E40EA3401A43054B0407240F82
:102AE000083CA408A4001A5110BD000000E100E059
:102AF0001CED00E002E008C8121F08C1002AFAD14C
:102B000070477047002001E001C1121F002AFBD16D
:102B10007047000008B5FFF78BFCFEF707FAFDF7DA
:102B200051FD23A0FDF79CFD2CA0FDF799FD36A0DB
:102B3000FDF796FDFDF7C8FE40A0FDF791FD4CA006
:102B4000FDF78EFD58A0FDF78BFD65A0FDF788FD14
:102B500071A0FDF785FD7EA0FDF782FD8A48FDF797
:102B60007FFD8AA0FDF77CFDFDF71AFF0090FEF7C0
:102B7000CFF904461BE0FDF7EDFC00280AD091A038
:102B8000FDF76EFDFDF7F8FC0546FDF79BFD45A042
:102B9000FDF766FD7D21C9002046FEF7ADF900284E
:102BA00005D0FEF7B5F904468DA0FDF759FDE2E723
:102BB0000D0A5B424F4F545D2074616E6B65722D40
:102BC000666C6F772D6D637520302E332E302D702F
:102BD0006861736533610D0A000000005B42535069
:102BE000205D2041504D33324630333078432063EE
:102BF0006C6F636B3D34384D487A207469636B3D6C
:102C0000316D730D0A0000005B554152545D205533
:102C10005341525431206465627567202050413918
:102C20002F504131302020203131353230302038A2
:102C30004E31204952510D0A000000005B554152AF
:102C4000545D2055534152543220425420202020BC
:102C5000205041322F504133202020202031313567
:102C600032303020384E31204952510D0A000000D8
:102C70005B554152545D20555341525433203447E3
:102C80002020202020504231302F5042313120204E
:102C90002031313532303020384E3120444D412BF7
:102CA00049444C450D0A00005B554152545D205586
:102CB000534152543420474E53532020205041302A
:102CC0002F50413120202020202020393630302044
:102CD000384E3120444D412B49444C450D0A0000EB
:102CE0005B554152545D2055534152543520464C5A
:102CF0004F572020205042332F5042342020202094
:102D00002020203936303020384531204952512B8F
:102D1000544D5231360D0A005B493243205D204943
:102D2000324331205042382F504239203130306BFD
:102D3000487A2C2053474D34313531312064726943
:102D400076657220656E61626C65640D0A00000034
:102D50005B414443205D204144435F494E362E2E63
:102D600039207261772F617665726167652F7069AE
:102D70006E2D6D562041504920696E697469616CF1
:102D8000697A65640D0A0000042E00085B50415307
:102D9000535D2070686173652D3341204253502F7D
:102DA00064726976657220696E697469616C697AAA
:102DB0006174696F6E20636F6D706C6574650D0A68
:102DC000000000005B455654205D2053474D3431D0
:102DD000353131206E494E5420636F756E743D005D
:102DE0005B414C4956455D2031730D0A00000000DF
:102DF0003031323334353637383941424344454631
:102E0000000000005B4750494F5D20434841524756
:102E1000455F494E542066616C6C696E672D656430
:102E20006765204952513B2065787465726E616C0C
:102E300020636F6E74726F6C732072656D61696E62
:102E400020736166650D0A005B53454C465D5B412E
:102E50004443205D2070696E5F6D762075736573E5
:102E6000206E6F6D696E616C20564444413D333372
:102E700030306D563B2065787465726E616C2064ED
:102E8000697669646572207363616C696E67206935
:102E900073206E6F7420617373756D65640D0A0025
:102EA000C02E00080000002024000000F42A0008C2
:102EB000E42E0008240000202C160000042B00083B
:102EC000006CDC02000000000000000000000000B8
:102ED00000000000000000000000000000000000F2
:042EE00000000000EE
:04000005080000B936
:00000001FF
